:10000000F0C0000009C1000007C1000005C10000E8
:1000100003C1000001C10000FFC00000FDC00000DE
:10002000FBC00000F9C00000CEC20000EDC200001D
:10003000F3C00000F1C00000EFC00000EDC0000000
:10004000EBC00000E9C00000E7C00000E5C0000010
:10005000E3C00000E1C00000DFC00000DDC0000020
:10006000DBC00000D9C00000D7C00000D5C0000030
:10007000D3C00000D1C00000CFC00000CDC0000040
:10008000CBC00000C9C00000C7C00000C5C0000050
:10009000C3C00000C1C00000BFC00000BDC0000060
:1000A000BBC00000B9C00000B7C0000000010000E4
:1000B000FE001200020000100122002100002201B7
:1000C000090022000032017000030000A2010401B7
:1000D000030904A6011802030904C0012001C13666
:1000E00000000021260107000000000000088080B9
:1000F00080800000000000000000000000001201ED
:10010000100100000040C410C08200010102000183
:1001100009022200010100803209040000010300ED
:100120000000092111010001227000070581034030
:10013000000A05010905A101150025013500450149
:100140007501950D05091901290D8102950381019C
:1001500005012507463B01750495016514093981A0
:100160004265009501810126FF0046FF0009300924
:1001700031093209357508950481020600FF09200E
:100180000921092209230924092509260927092803
:100190000929092A092B950C81020A21269508B103
:1001A00002C00403090418035200650074007200C1
:1001B0006F005400650065006E0073007900000058
:1001C000200353004E0045005300200043006F0001
:1001D0006E00740072006F006C006C0065007200AD
:1001E000000011241FBECFEFDAE0DEBFCDBF11E06B
:1001F000A0E0B1E0E8EAF8E002C005900D92A2307C
:10020000B107D9F711E0A2E0B1E001C01D92AA3117
:10021000B107E1F7D1D046C3F3CEF89481E08093E3
:10022000E00080E28093D800E9ECF0E0108280E208
:100230009EE40197F1F71DBA109268001CBC10BE35
:100240001FBA10927A0010926E0010926F001092F6
:100250007100109272001082ECEBF0E0108214B882
:1002600017B81AB81DB810BA108215B818B81BB84C
:100270001EB811BA0C94003F0895209A219A229832
:10028000289A299A2A98089529982898289A1A9994
:1002900002C0E2E001C0E0E02898289A1A9902C062
:1002A00078E001C070E02898289A1A9902C060E1AD
:1002B00001C060E02898289A1A9902C050E201C053
:1002C00050E02898289A93B12898289A1A9902C041
:1002D00082E001C080E0969596959095917028985F
:1002E000289A1A9902C034E001C030E02898289A70
:1002F0001A9902C028E001C020E0892B832B822BB1
:10030000809303012898289A83B1869586958095D5
:1003100081702898289A1A9902C044E001C040E0F0
:100320002898289A1A9902C030E401C030E0289831
:10033000289A1A9902C020E801C020E09E2F982B2D
:10034000972B962B952B942B932B922B909302010A
:10035000299A10920401292F30E094FF2CC0A901A2
:100360004074507095FF13C0452B41F097FF06C0B5
:1003700082E08093040110920201089521FF1BC0C6
:1003800081E0809304019D73909302010895452BB1
:1003900031F088E0809304019F7A9093020190915C
:1003A000020197FF08C080910401806180930401DD
:1003B0009F76909302010895AF92BF92CF92DF9201
:1003C000EF92FF920F931F9380E880936100109249
:1003D000610053DF569A5E9AABD0C1D08823E9F30F
:1003E00080E197E220E931E0F9013197F1F70197D7
:1003F000D9F75E9842E0A42E36E0B32E24E0C22E58
:1004000093E0D92E85E0E82EFF24F39407E01FEF58
:1004100039D23ADF8091040181FF01C0FEDE809174
:10042000030190E080FF0CC01092090182FF03C01D
:10043000009309011FC083FF1DC0F09209011AC07B
:100440009C012470307081FF0CC0C0920901232BE5
:1004500019F0E09209010EC083FF0CC0D09209018F
:1004600009C0232B19F0B092090104C083FF02C018
:10047000A092090120910201922F21FF07C08091D3
:1004800007018260809307011093140193FF07C056
:10049000809107018160809307011093150192FFFD
:1004A00007C08091070188608093070110931201B3
:1004B00090FF07C08091070184608093070110932B
:1004C000130127FF07C08091070180628093070115
:1004D0001093170180910401282F84FF07C0809199
:1004E00007018068809307011093190196FF07C0E8
:1004F000809107018061809307011093160123FF0B
:1005000007C0809107018064809307011093180150
:1005100095FF05C08091080182608093080194FFD7
:1005200005C0809108018160809308011BD070CFC5
:1005300081E08093D70080EA8093D80082E189BD72
:1005400009B400FEFDCF80E98093D8001092E0004E
:10055000109205018CE08093E200789408958091D8
:100560000501089580910501882359F12FB7F8946A
:1005700081E08093E9009091E4009E5C31E08091FD
:10058000E80085FF03C0E7E0F1E00EC02FBF8091D7
:1005900005018823B1F08091E400891791F02FB70D
:1005A000F8943093E900EBCF81918093F10081E0E2
:1005B000EA31F807C9F78AE38093E8002FBF80E0AB
:1005C00008958FEF08951F920F920FB60F92112486
:1005D0008F938091E1001092E10083FF0FC0109291
:1005E000E90081E08093EB001092EC0082E38093BD
:1005F000ED0088E08093F000109205018F910F903C
:100600000FBE0F901F9018951F920F920FB60F926A
:1006100011240F931F932F933F934F935F936F93E7
:100620007F938F939F93AF93BF93EF93FF9310921A
:10063000E9008091E80083FF0FC14091F100309103
:10064000F1008091F100682F70E02091F100922F6D
:1006500080E0682B792B8091F100A82FB0E02091E9
:10066000F100922F80E0A82BB92B1091F10000919E
:10067000F10082EF8093E800363009F05AC023EB96
:1006800030E0A90145505040F90137978591949188
:100690008617970701F5FA01859194918A179B07B0
:1006A000D1F49A012E5F3F4FF901659174912E5F4D
:1006B0003F4FF9014491212F30E0902F80E0282B0B
:1006C000392B2F3F310519F010F02FEF30E02417B0
:1006D00058F4422F09C0295F3F4F495F5F4FF0E058
:1006E000243E3F0789F6B8C05EEF8091E800282FCE
:1006F00030E0C90185709070892BB9F322FDAFC03D
:10070000342F413408F030E4232FCB0106C0FC0124
:100710000196E491E093F10021502223C1F7630F89
:10072000711D431B5093E8004423F9F63034E9F27D
:1007300096C0353061F48EEF8093E8008091E80038
:1007400080FFFCCF862F80688093E30088C039301B
:1007500051F5442309F03DC0609305018EEF80936D
:10076000E8008DED90E021E02093E900FC01019686
:10077000E491E093EB00EE2369F0AC014F5F5F4F33
:10078000FC0184918093EC00CA010196FA01349136
:100790003093ED002F5F253039F78EE18093EA002A
:1007A0001092EA005CC0383049F4403891F48091EE
:1007B000E80080FFFCCF8091050132C0332349F46B
:1007C0008091E80080FFFCCF1092F1001092F100C0
:1007D0003FC0AB2B09F040C0413A29F5313079F4E4
:1007E0008091E80080FFFCCFE3EEF0E084918093FD
:1007F000F100319680E0EB3EF807C1F729C03230B6
:1008000039F48091E80080FFFCCF8091060108C098
:10081000333011F58091E80080FFFCCF809100011A
:100820008093F10015C04132B9F4393041F4809120
:10083000E80082FFFCCF8BEF8093E80009C03A30DC
:1008400019F47093060104C03B3031F46093000149
:100850008EEF8093E80003C081E28093EB00FF916C
:10086000EF91BF91AF919F918F917F916F915F9128
:100870004F913F912F911F910F910F900FBE0F90AD
:100880001F90189587E091E06BEE70E043E150E037
:1008900000C0FB01DC0102C005900D9241505040A8
:0808A000D8F70895F894FFCF8A
:0208A80001004D
:00000001FF
