:10000000F7C0000010C100000EC100000CC10000CC
:100010000AC1000008C1000006C1000004C10000C0
:1000200002C1000000C10000D0C20000EFC2000009
:10003000FAC00000F8C00000F6C00000F4C00000E4
:10004000F2C00000F0C00000EEC00000ECC00000F4
:10005000EAC00000E8C00000E6C00000E4C0000004
:10006000E2C00000E0C00000DEC00000DCC0000014
:10007000DAC00000D8C00000D6C00000D4C0000024
:10008000D2C00000D0C00000CEC00000CCC0000034
:10009000CAC00000C8C00000C6C00000C4C0000044
:1000A000C2C00000C0C00000BEC0000000010000CF
:1000B000FE001200020000100122002100002201B7
:1000C000090022000032017000030000A2010401B7
:1000D000030904A6011802030904C0012E01C13658
:1000E00000000021260107000000000000088080B9
:1000F00080800000000000000000000000001201ED
:10010000100100000040C410C08200010102000183
:1001100009022200010100803209040000010300ED
:100120000000092111010001227000070581034030
:10013000000A05010905A101150025013500450149
:100140007501950D05091901290D8102950381019C
:1001500005012507463B01750495016514093981A0
:100160004265009501810126FF0046FF0009300924
:1001700031093209357508950481020600FF09200E
:100180000921092209230924092509260927092803
:100190000929092A092B950C81020A21269508B103
:1001A00002C00403090418035200650074007200C1
:1001B0006F005400650065006E0073007900000058
:1001C0002E0353004500470041002000530041002A
:1001D0005400550052004E00200043006F006E0096
:1001E000740072006F006C006C006500720000000B
:1001F00011241FBECFEFDAE0DEBFCDBF11E0A0E0DB
:10020000B1E0ECEAF8E002C005900D92A230B1072F
:10021000D9F711E0A2E0B1E001C01D92AA31B10707
:10022000E1F7CCD041C3ECCEF89481E08093E000BC
:1002300080E28093D800E9ECF0E0108280E29EE456
:100240000197F1F71DBA109268001CBC10BE1FBACE
:1002500010927A0010926E0010926F00109271004E
:10026000109272001082ECEBF0E0108214B817B814
:100270001AB81DB810BA108215B818B81BB81EB835
:1002800011BA0C94003F0895209821982298239841
:10029000509A519A289A299A2A9A2B9A589A599A96
:1002A0000895589A599A80EA9FE00197F1F71B99AF
:1002B00002C070E401C070E05898599880EA9FE04D
:1002C0000197F1F7189902C060E201C060E0199946
:1002D00002C050E101C050E01A9902C048E001C0DC
:1002E00040E01B9902C030E801C030E0589A5998AC
:1002F00080EA9FE00197F1F7189902C022E001C05F
:1003000020E0199902C084E001C080E093B1969585
:10031000969590959170972B962B952B942B932BCC
:10032000922B982B9093020153B15898599AE0EA76
:10033000FFE03197F1F723B1199902C082E001C0C3
:1003400080E0209521701A9902C044E001C040E08D
:100350001B9902C038E001C030E0822B842B832B34
:10036000809303011092040153FD27C096FF1DC026
:1003700097FF14C095FF09C092FF07C082E08093E9
:1003800004019B7D9093020103C081E080930401EE
:10039000809102018F7380930201089584E080931D
:1003A00004019F7B90930201089597FF06C088E0A7
:1003B000809304019F77909302010895AF92BF92BA
:1003C000CF92DF92EF92FF920F931F9380E880937A
:1003D00061001092610058DF569A5E9AABD0C1D08E
:1003E0008823E9F380E197E220E931E0F9013197D0
:1003F000F1F70197D9F75E9842E0A42E36E0B32ECC
:1004000024E0C22E93E0D92E85E0E82EFF24F39459
:1004100007E01FEF39D245DF8091040181FF01C061
:1004200003DF8091030190E080FF0CC0109209016E
:1004300082FF03C0009309011FC083FF1DC0F0921B
:1004400009011AC09C012470307081FF0CC0C09259
:100450000901232B19F0E09209010EC083FF0CC0A3
:10046000D092090109C0232B19F0B092090104C0F0
:1004700083FF02C0A092090120910201922F20FF68
:1004800007C08091070182608093070110931401D7
:1004900093FF07C08091070181608093070110934B
:1004A000150194FF07C080910701886080930701C0
:1004B0001093120191FF07C080910701846080931F
:1004C00007011093130127FF07C080910701806285
:1004D000809307011093170192FF07C080910701D5
:1004E0008068809307011093190196FF07C08091DF
:1004F00007018061809307011093160195FF07C0E3
:100500008091070180648093070110931801809106
:100510000401982F83FF05C08091080182608093B9
:10052000080192FF05C08091080181608093080155
:100530001BD070CF81E08093D70080EA8093D800F1
:1005400082E189BD09B400FEFDCF80E98093D80027
:100550001092E000109205018CE08093E200789404
:10056000089580910501089580910501882359F12E
:100570002FB7F89481E08093E9009091E4009E5CAD
:1005800031E08091E80085FF03C0E7E0F1E00EC0B4
:100590002FBF809105018823B1F08091E400891775
:1005A00091F02FB7F8943093E900EBCF81918093CD
:1005B000F10081E0EA31F807C9F78AE38093E800A7
:1005C0002FBF80E008958FEF08951F920F920FB60E
:1005D0000F9211248F938091E1001092E10083FF2C
:1005E0000FC01092E90081E08093EB001092EC00C4
:1005F00082E38093ED0088E08093F0001092050183
:100600008F910F900FBE0F901F9018951F920F9211
:100610000FB60F9211240F931F932F933F934F9375
:100620005F936F937F938F939F93AF93BF93EF935A
:10063000FF931092E9008091E80083FF0FC1409181
:10064000F1003091F1008091F100682F70E020916D
:10065000F100922F80E0682B792B8091F100A82F78
:10066000B0E02091F100922F80E0A82BB92B1091DF
:10067000F1000091F10082EF8093E800363009F03C
:100680005AC023EB30E0A90145505040F90137979B
:10069000859194918617970701F5FA0185919491B8
:1006A0008A179B07D1F49A012E5F3F4FF90165919C
:1006B00074912E5F3F4FF9014491212F30E0902F2C
:1006C00080E0282B392B2F3F310519F010F02FEF48
:1006D00030E0241758F4422F09C0295F3F4F495F8B
:1006E0005F4FF0E0243E3F0789F6B8C05EEF80918F
:1006F000E800282F30E0C90185709070892BB9F38C
:1007000022FDAFC0342F413408F030E4232FCB0159
:1007100006C0FC010196E491E093F10021502223F0
:10072000C1F7630F711D431B5093E8004423F9F692
:100730003034E9F296C0353061F48EEF8093E800F2
:100740008091E80080FFFCCF862F80688093E300D3
:1007500088C0393051F5442309F03DC0609305014C
:100760008EEF8093E8008DED90E021E02093E9008A
:10077000FC010196E491E093EB00EE2369F0AC01FB
:100780004F5F5F4FFC0184918093EC00CA0101969A
:10079000FA0134913093ED002F5F253039F78EE167
:1007A0008093EA001092EA005CC0383049F4403887
:1007B00091F48091E80080FFFCCF8091050132C068
:1007C000332349F48091E80080FFFCCF1092F100C0
:1007D0001092F1003FC0AB2B09F040C0413A29F51F
:1007E000313079F48091E80080FFFCCFE3EEF0E057
:1007F00084918093F100319680E0EB3EF807C1F7D9
:1008000029C0323039F48091E80080FFFCCF80911C
:10081000060108C0333011F58091E80080FFFCCF5D
:10082000809100018093F10015C04132B9F4393054
:1008300041F48091E80082FFFCCF8BEF8093E800C9
:1008400009C03A3019F47093060104C03B3031F40A
:10085000609300018EEF8093E80003C081E28093F3
:10086000EB00FF91EF91BF91AF919F918F917F919D
:100870006F915F914F913F912F911F910F910F9029
:100880000FBE0F901F90189587E091E06BEE70E01F
:1008900043E150E000C0FB01DC0102C005900D9275
:0C08A00041505040D8F70895F894FFCF65
:0208AC00010049
:00000001FF
