:10000000F8C0000011C100000FC100000DC10000C8
:100010000BC1000009C1000007C1000005C10000BC
:1000200003C1000001C1000086C20000A5C200009B
:10003000FBC00000F9C00000F7C00000F5C00000E0
:10004000F3C00000F1C00000EFC00000EDC00000F0
:10005000EBC00000E9C00000E7C00000E5C0000000
:10006000E3C00000E1C00000DFC00000DDC0000010
:10007000DBC00000D9C00000D7C00000D5C0000020
:10008000D3C00000D1C00000CFC00000CDC0000030
:10009000CBC00000C9C00000C7C00000C5C0000040
:1000A000C3C00000C1C00000BFC0000000010000CC
:1000B000FE001200020000100122002100002201B7
:1000C000090022000032017000030000A2010401B7
:1000D000030904A6011802030904C0013001C13656
:1000E00000000021260107000000000000088080B9
:1000F00080800000000000000000000000001201ED
:10010000100100000040C410C08200010102000183
:1001100009022200010100803209040000010300ED
:100120000000092111010001227000070581034030
:10013000000A05010905A101150025013500450149
:100140007501950D05091901290D8102950381019C
:1001500005012507463B01750495016514093981A0
:100160004265009501810126FF0046FF0009300924
:1001700031093209357508950481020600FF09200E
:100180000921092209230924092509260927092803
:100190000929092A092B950C81020A21269508B103
:1001A00002C00403090418035200650074007200C1
:1001B0006F005400650065006E0073007900000058
:1001C0003003530045004700410020004700450030
:1001D0004E004500530049005300200043006F00CB
:1001E0006E00740072006F006C006C00650072009D
:1001F000000011241FBECFEFDAE0DEBFCDBF11E05B
:10020000A0E0B1E0E8E1F8E002C005900D92A23074
:10021000B107D9F711E0A2E0B1E001C01D92AB3106
:10022000B107E1F799D0F6C2EBCE209A2198229837
:100230002398279850985198289A29982A982B986B
:100240002F98589859980895289A80EA9FE0019726
:10025000F1F7199902C032E001C031E01A9902C0E9
:1002600084E001C081E01B9902C028E001C021E0C8
:100270001F9902C090E101C091E0832B822B892B52
:1002800080930501489902C034E001C031E04999EA
:1002900002C028E001C021E0289880EA9FE0019791
:1002A000F1F7499902C090E801C091E0489902C075
:1002B00082E001C081E0322B392B382B30930401CE
:1002C000289A2898289A289883B183B183B183B15A
:1002D00081E080930301199B02C0109203011A9BD5
:1002E00002C0109203011B9B02C0109203011F9BCE
:1002F00002C01092030180910301882319F1289A0A
:1003000080EA9FE00197F1F7199902C080E401C0EB
:1003100081E01A9902C020E201C021E01B9902C0CD
:1003200090E101C091E0832B822B892B8093040103
:1003300093B1991F9927991F82E0891B809302012D
:1003400028980895289A2898199B05C01A9B03C0DD
:1003500081E0809303010895AF92BF92CF92DF9224
:10036000EF92FF920F931F9380E8809361001092A9
:1003700061005BDF569A5E9A93D0A9D08823E9F397
:1003800080E197E220E931E0F9013197F1F7019737
:10039000D9F75E9842E0A42E36E0B32E24E0C22EB8
:1003A00093E0D92E85E0E82EFF24F39407E01FEFB9
:1003B00021D24ADF8091050190E081FF0CC01092AC
:1003C0000A0183FF03C000930A011FC084FF1DC000
:1003D000F0920A011AC09C012870307082FF0CC094
:1003E000C0920A01232B19F0E0920A010EC084FF8B
:1003F0000CC0D0920A0109C0232B19F0B0920A0157
:1004000004C084FF02C0A0920A0120910401922F2F
:1004100022FF07C080910801826080930801109339
:10042000150191FF07C08091080181608093080148
:100430001093160194FF07C0809108018860809393
:1004400008011093130193FF07C080910801846095
:10045000809308011093140196FF07C08091080152
:100460008062809308011093180195FF07C0809166
:1004700008018061809308011093170127FF05C0D0
:10048000809109018260809309018091020181FFBE
:1004900005C0809109018160809309011BD088CF3C
:1004A00081E08093D70080EA8093D80082E189BD03
:1004B00009B400FEFDCF80E98093D8001092E000DF
:1004C000109206018CE08093E20078940895809168
:1004D0000601089580910601882359F12FB7F894F9
:1004E00081E08093E9009091E4009E5C31E080918E
:1004F000E80085FF03C0E8E0F1E00EC02FBF809167
:1005000006018823B1F08091E400891791F02FB79C
:10051000F8943093E900EBCF81918093F10081E072
:10052000EB31F807C9F78AE38093E8002FBF80E03A
:1005300008958FEF08951F920F920FB60F92112416
:100540008F938091E1001092E10083FF0FC0109221
:10055000E90081E08093EB001092EC0082E380934D
:10056000ED0088E08093F000109206018F910F90CB
:100570000FBE0F901F9018951F920F920FB60F92FB
:1005800011240F931F932F933F934F935F936F9378
:100590007F938F939F93AF93BF93EF93FF931092AB
:1005A000E9008091E80083FF0FC14091F100309194
:1005B000F1008091F100682F70E02091F100922FFE
:1005C00080E0682B792B8091F100A82FB0E020917A
:1005D000F100922F80E0A82BB92B1091F10000912F
:1005E000F10082EF8093E800363009F05AC023EB27
:1005F00030E0A90145505040F90137978591949119
:100600008617970701F5FA01859194918A179B0740
:10061000D1F49A012E5F3F4FF901659174912E5FDD
:100620003F4FF9014491212F30E0902F80E0282B9B
:10063000392B2F3F310519F010F02FEF30E0241740
:1006400058F4422F09C0295F3F4F495F5F4FF0E0E8
:10065000243E3F0789F6B8C05EEF8091E800282F5E
:1006600030E0C90185709070892BB9F322FDAFC0CD
:10067000342F413408F030E4232FCB0106C0FC01B5
:100680000196E491E093F10021502223C1F7630F1A
:10069000711D431B5093E8004423F9F63034E9F20E
:1006A00096C0353061F48EEF8093E8008091E800C9
:1006B00080FFFCCF862F80688093E30088C03930AC
:1006C00051F5442309F03DC0609306018EEF8093FD
:1006D000E8008DED90E021E02093E900FC01019617
:1006E000E491E093EB00EE2369F0AC014F5F5F4FC4
:1006F000FC0184918093EC00CA010196FA013491C7
:100700003093ED002F5F253039F78EE18093EA00BA
:100710001092EA005CC0383049F4403891F480917E
:10072000E80080FFFCCF8091060132C0332349F4FA
:100730008091E80080FFFCCF1092F1001092F10050
:100740003FC0AB2B09F040C0413A29F5313079F474
:100750008091E80080FFFCCFE3EEF0E0849180938D
:10076000F100319680E0EB3EF807C1F729C0323046
:1007700039F48091E80080FFFCCF8091070108C028
:10078000333011F58091E80080FFFCCF80910001AB
:100790008093F10015C04132B9F4393041F48091B1
:1007A000E80082FFFCCF8BEF8093E80009C03A306D
:1007B00019F47093070104C03B3031F460930001D9
:1007C0008EEF8093E80003C081E28093EB00FF91FD
:1007D000EF91BF91AF919F918F917F916F915F91B9
:1007E0004F913F912F911F910F910F900FBE0F903E
:1007F0001F90189588E091E06BEE70E043E150E0C7
:1008000000C0FB01DC0102C005900D924150504038
:08081000D8F70895F894FFCF1A
:020818000100DD
:00000001FF
